:020000040800F2
:1000000008420020B1010008DB3D00081F2A00085B
:10001000D93D000887030008954E00080000000045
:10002000000000000000000000000000B94A0008C5
:100030008903000800000000DD3D0008BB4A0008FD
:10004000CB010008CB010008CB010008CB01000860
:10005000CB010008CB0100088B030008CB0100088E
:10006000CB010008CB010008CB010008CB01000840
:10007000CB010008CB010008CB010008CB01000830
:10008000CB010008CB010008CB01000800000000F4
:10009000000000000000000000000000CB0100088C
:1000A000CB010008CB010008CB010008CB01000800
:1000B000CB010008CB010008CB0100082D2A000865
:1000C000212A0008CB010008CB010008CB01000861
:1000D000CB010008CB010008CB01000800000000A4
:1000E000CB010008CB010008CB0100080000000094
:1000F000000000000000000000000000CB0100082C
:1001000000000000193E0008CB010008CB010008E8
:1001100000000000000000000000000000000000DF
:10012000CB010008CB010008CB010008CB0100087F
:10013000CB010008000000000000000000000000EB
:10014000000000000000000000000000CB010008DB
:10015000CB010008CB010008CB010008894E000844
:10016000CB010008CB0100080000000000000000E7
:10017000000000000000000000000000000000007F
:1001800000000000CB01000800000000000000009B
:10019000CB010008CB010008DFF810D000F07CF89C
:1001A00000480047C54F0008AFF300800842002018
:1001B0000648804706480047FEE7FEE7FEE7FEE701
:1001C000FEE7FEE7FEE7FEE7FEE7FEE7514B00082D
:1001D000990100082DE9F05F0546002092469B46F4
:1001E00088460646814640241BE02846414647464D
:1001F000224600F041F853465A46C01A914110D3A6
:1002000011461846224600F028F82D1A67EB01081F
:100210004F4622460120002100F01FF817EB00098D
:100220004E41201EA4F10104DFDC484631462A4637
:100230004346BDE8F09FD2B201E000F8012B491E11
:10024000FBD270470022F6E710B513460A46044673
:100250001946FFF7F0FF204610BD202A04DB203AA4
:1002600000FA02F1002070479140C2F1200320FA09
:1002700003F3194390407047202A04DB203A21FA07
:1002800002F00021704721FA02F3D040C2F12002AF
:100290009140084319467047064C074D06E0E06858
:1002A00040F0010394E8070098471034AC42F6D3BD
:1002B000FFF776FFC0500008E050000810B5042199
:1002C000024800F07FFA012010BD00000004024047
:1002D000704700000146014801F06CBC800000201E
:1002E00010B5044801F078FC042801D0012010BDAD
:1002F000002010BD8000002010B500F015F8012886
:1003000001D0012010BD074801F076FD044634B944
:100310004FF40061034801F003FB00B101242046C3
:1003200010BD00008000002008B501200090FFF7FC
:10033000C5FF08B9002000909DF8000008BD00002E
:1003400038B50024009313460A460146034801F0DD
:1003500017FE00B10124204638BD000080000020B7
:100360007047000038B50024009313460A46014642
:10037000034801F047FF00B10124204638BD0000CA
:10038000800000207047FEE77047012000F010B9A0
:1003900072B6FEE7002200F001B8000010B48446F7
:1003A00001200E4B5C7A002C16D1587A1C54587AD6
:1003B00003EB8000C0F804C0587A03F1080C00F881
:1003C0000C20587A421C5A72303008703A2048701B
:1003D0002F208870CC70002010BC7047F8010020DE
:1003E00010B541F6FF74204600F020F8AB280AD083
:1003F000AB21204600F042F8204600F017F8AB2869
:1004000001D0012010BD002010BD70B514460D466E
:10041000064606E03046711C8EB200F007F805F87B
:10042000010B641EE4B2F5D270BD00001FB50021BF
:100430008DF80C10FF23012203A98DE80E0002465F
:100440001023A121044800F0F9FB0A2000F094F8E1
:100450009DF80C0004B010BD2C00002070B51646AD
:100460000C46054606E02178284600F007F86D1C8A
:10047000ADB2641C761EF6B2F5D270BD13B584B071
:10048000FF242346012205A98DE80E000246102311
:10049000A021054800F032FD00B900240A2000F038
:1004A0006BF806B0204610BD2C0000202DE9F0416D
:1004B0000446A66D00F094F9054694F8350000272F
:1004C000022806D08020606584F834700120BDE8E1
:1004D000F0812068016821F01601016020684169FF
:1004E00021F080014161206C08B9A06C20B1206826
:1004F000016821F0080101602068016821F0010114
:1005000001602068006810F0010F12D000F068F957
:10051000401B052808D920206065032084F8350099
:1005200084F83470BDE8F0812068006810F0010F95
:10053000ECD194F85C003F2101FA00F0B06001209A
:1005400084F8350084F834700020BDE8F08190F81C
:100550003510022903D08021416501207047052113
:1005600080F835100068016821F001010160002069
:10057000704790F83500704770B5044600F030F9C8
:100580000546B4F1FF3F02D004480078044400F06F
:1005900027F9401BA042FAD370BD000010000020D4
:1005A000012801D1014908707047000000000020B7
:1005B00010B504490A68024202D00860FFF7F0FF54
:1005C00010BD0000143C01402DE9F84F0022DFF877
:1005D000E8A1DFF8E0914FF0010E03274FF00F087C
:1005E0000AF1040B0EFA02FC0B6803EA0C036345E4
:1005F0007DD10C7904F00304012C01D0022C14D11C
:100600008568540007FA04F6B543CE6806FA04F488
:100610002C438460446824EA0C0C0C79C4F3001465
:10062000944044EA0C0CC0F804C0D1F804C037EA86
:100630000C0C0CD0C4684FEA420C07FA0CF5AC4322
:100640008D6805FA0CFC4CEA040CC0F80CC091F85B
:1006500004C00CF0030CBCF1020F12D14FEAD20C13
:1006600000EB8C04256A4FEA427C4FEADC6C08FA06
:100670000CF6B5430E6906FA0CFC4CEA050CC4F8FE
:1006800020C004684FEA420C07FA0CF5AC430D7920
:1006900005F0030505FA0CFC4CEA040CC0F800C098
:1006A000D1F804C01CF4403F6ED0D9F800C04CF41F
:1006B000804CC9F800C0D9F800C00CF4804CCDF8CB
:1006C00000C022F0030C0CF1804505F59835D5F8F3
:1006D00008C89407240F08FA04F62CEA0606A0F1CD
:1006E000804CBCF5003C55D0A0F1804C00E04BE0C4
:1006F000BCF5013C51D0A0F1804CBCF5023C4FD080
:10070000A0F1804CBCF5033C4DD0A0F1804CBCF571
:10071000043C4BD04FF0070C0CFA04FC4CEA060CDE
:10072000C5F808C8DAF800C02CEA030C4C6814F4C9
:10073000801F01D04CEA030CCAF800C0DBF800C0EF
:100740002CEA030C4C6814F4001F01D04CEA030C93
:10075000CBF800C0194CD4F800C02CEA030C4D684B
:1007600015F4003F01D04CEA030CC4F800C0144C4F
:10077000D4F800C02CEA030C4D6815F4803F01D07A
:100780004CEA030CC4F800C0521C102AFFF42AAF34
:10079000BDE8F88F4FF0000CBEE74FF0010CBBE74F
:1007A0004FF0020CB8E74FF0030CB5E74FF0040C24
:1007B000B2E7000044380240083C0140043C0140DC
:1007C000003C01400069084201D001207047002030
:1007D0007047002A01D08161704709048161704728
:1007E0000148806870470000100000207047704783
:1007F0002DE9F041044621684E694F68002594F8C0
:100800003E0016F4807F06D017F4807F03D00125C8
:100810006FF480724A6116F4007F08D017F4807F6D
:1008200005D045F0020522686FF40071516116F49D
:10083000806F25D017F4807F22D0628D94F83D1010
:10084000236B202808D13AB9212910D029290ED0AC
:10085000282901D1212B0AD022686FF480615161CF
:1008600045F00405102806D0402804D008E02046B2
:1008700002F004FF04E02068016841F400710160A7
:1008800016F4006F08D017F4807F05D045F00805F6
:1008900021686FF400604861002D07D0206C284368
:1008A00020642046BDE8F04102F03AB9BDE8F0818D
:1008B0002DE9F04104460021D4F800C0DCF8042002
:1008C000E56A94F83E3094F83D00102B07D0402B99
:1008D00005D0236C002B7BD0DCF814307CE0DCF8F6
:1008E0001860DCF8141011F0010F05D1B5F52A0FCE
:1008F0007ED0B5F12A4F7BD011F0010F0AD012F44F
:10090000007F07D0204602F097F82046BDE8F0416E
:1009100002F06EBC11F0080F07D012F4007F04D073
:100920002046BDE8F04102F065BB11F0020F07D090
:1009300012F4007F04D02046BDE8F04102F06FBB06
:1009400016F0040F26D0DCF804C01CF4006F4FD161
:1009500011F0800F05D012F4806F02D011F0040F57
:100960000ED011F0040F43D012F4007F40D02128A4
:100970000BD0402B3CD12046BDE8F04102F088BCB2
:100980002046BDE8F04102F0D3BA2046BDE8F04170
:1009900002F083BADCF8040010F4006F6ED111F09D
:1009A000400F05D012F4806F02D011F0040F0AD06E
:1009B00011F0040F62D012F4007F5FD02046BDE832
:1009C000F04102F07CB92046BDE8F04102F0F7B9F1
:1009D000DCF81810DCF8143013F0020F0DD012F40C
:1009E000007F0AD0206C08B1DCF81810204600E027
:1009F00044E0BDE8F04102F019BE13F0100F07D03B
:100A000012F4007F04D02046BDE8F04102F078BE29
:100A1000212815D0292813D013F0400F05D012F447
:100A2000806F02D013F0040F23D013F0040F25D0F1
:100A300012F4007F22D02046BDE8F04102F096BDBE
:100A400013F0800F05D012F4806F02D013F0040F62
:100A50000AD013F0040F11D012F4007F0ED02046FC
:100A6000BDE8F04102F0B2BD2046BDE8F04102F021
:100A7000BBBD2046BDE8F04102F086BDBDE8F08177
:100A80007047000070B50446002C04D094F83D0077
:100A9000002510B106E0012070BD84F83C502046CE
:100AA00000F0E6FA242084F83D002068016821F077
:100AB000010101602068016841F400410160206883
:100AC000016821F40041016000F08EFC544B616824
:100AD000994203D85349884203D304E052498842DB
:100AE00001D2012070BD5149B0FBF1F12268D2F86A
:100AF00004C02CF03F0C4CEA010CC2F804C0626840
:100B00009A4201D84A1C07E04FF4967251434FF4C1
:100B10007A72B1FBF2F14A1C2168D1F820C02CF0A6
:100B20003F0C42EA0C020A626168994210D84900FF
:100B3000401EB0FBF1F2521CC2F30B02042A01D298
:100B4000042026E0B0FBF1F0401CC0F30B0020E0D5
:100B5000A268002A50D001EBC10303EB0113A0F1FE
:100B6000010CBCFBF3F35B1C43F480431B051B0D22
:100B70004AD0002A4AD001EBC10202EB0111401E0B
:100B8000B0FBF1F0401CC0F30B0040F4804040F497
:100B900000402168CA6922F0FF0222F44F4210434C
:100BA000C861216AE06901432068026822F0C0023E
:100BB00011430160E168206901432068826822F0E6
:100BC000FF0222F4034211438160A169606901437D
:100BD0002068C26822F0FF021143C16020680168EA
:100BE00041F0010101602564202084F83D00256367
:100BF00084F83E50002070BD01EB4103A0F1010CD0
:100C0000BCFBF3F35B1CB1E70120C2E701EB410140
:100C1000401EB0FBF1F0401CC0F30B00B7E7000032
:100C2000A086010080841E0000093D0040420F00A4
:100C30007047704770477047704700002DE9FF4FBD
:100C400083B004468A469346DDF84490DDF8408040
:100C5000129EFFF7C5FD054694F83D00202803D0FD
:100C600007B00220BDE8F08F19230122A0492046D9
:100C7000009502F023FE18B107B00220BDE8F08F06
:100C800094F83C00012808D0012084F83C0020683A
:100C9000016811F0010F04D007E007B00220BDE8A1
:100CA000F08F016841F0010101602068016821F4C2
:100CB00000610160222084F83D00402084F83E005D
:100CC00000272764C4F82480A4F82A90608D20852A
:100CD0008848E062019500965A4651462046069B98
:100CE00002F032FB18B107B00120BDE8F08F208D73
:100CF00010B3012829D0022835D0206841698069C5
:100D00000290208D002800F0E880DFF8EC81208D33
:100D1000032800F2B780012834D002284AD0334695
:100D2000002241462046009502F0C8FD00286CD004
:100D300007B00120BDE8F08F206841698169029108
:100D4000016841F400710160DBE72068016821F46B
:100D5000806101602068416981690291016841F404
:100D600000710160CDE72068016821F480610160B5
:100D70002068016841F40061016020684169806970
:100D80000290BEE72A463146204602F058FE18B1CE
:100D900007B00120BDE8F08F20680069616A087023
:100DA000606A401C6062208D401E2085608D401E60
:100DB00060858EE03346002241462046009502F0D1
:100DC0007DFD18B107B00120BDE8F08F20680168F3
:100DD00041F40071016020680069616A0870606A0E
:100DE000401C6062218D491E2185618D491E6185EF
:100DF000216809690170606A401C6062208D401E94
:100E00002085608D401E608563E02068016821F4C4
:100E10008061016020680069616A0870606A401C36
:100E20006062208D401E2085608D401E60853346A7
:100E3000002241462046009502F040FD18B107B05F
:100E40000120BDE8F08F2068016841F40071016065
:100E500020680069616A0870606A401C6062218DC8
:100E6000491E2185618D491E6185216809690170CE
:100E7000606A401C6062208D401E2085608D401E8F
:100E8000608526E02A463146204602F0D8FD18B19A
:100E900007B00120BDE8F08F20680069616A087022
:100EA000606A401C6062218D491E2185618D491E4A
:100EB00061852268516911F0040F0AD0116901702F
:100EC000606A401C6062208D401E2085608D401E3F
:100ED0006085208D00287FF41AAF202084F83D0023
:100EE00084F83E7084F83C7007B00020BDE8F08FB5
:100EF000020010000000FFFF040001002DE9FF4F79
:100F000083B004468A469346DDF84490DDF840807D
:100F1000129EFFF765FC054694F83D00202803D09B
:100F200007B00220BDE8F08F192301224E49204668
:100F3000009502F0C3FC18B107B00220BDE8F08FA5
:100F400094F83C00012808D0012084F83C00206877
:100F5000016811F0010F04D007E007B00220BDE8DE
:100F6000F08F016841F0010101602068016821F4FF
:100F700000610160212084F83D00402084F83E009B
:100F800000272764C4F82480A4F82A90608D208567
:100F90003648E062019500965A4651462046069B27
:100FA00002F07CFA18B107B00120BDE8F08F208D67
:100FB000002836D02A463146204602F09FFD58B11F
:100FC000206C042804D12068016841F4007101609C
:100FD00007B00120BDE8F08F606A216800780861E1
:100FE000606A00F1010CC4F824C0208D401E80B25C
:100FF0002085618D491E61852368596911F0040FB0
:101000000CD058B19CF800001861606A401C606206
:10101000208D401E2085608D401E6085208D00281B
:10102000C8D12A463146204602F01AFC58B1206C3D
:10103000042804D12068016841F40071016007B000
:101040000120BDE8F08F2068016841F40071016063
:10105000202084F83D0084F83E7084F83C7007B08E
:101060000020BDE8F08F0000020010000000FFFF2C
:1010700010B586B0044614216846FFF7E3F81C4912
:101080002068884231D11B48016841F002010160AB
:101090000068694600F0020005904FF4407000902F
:1010A000122001900120029002200390042004905D
:1010B0001148FFF789FA0F481030016841F4001118
:1010C00001600068002200F40010059011461F2006
:1010D00000F080F81F2000F06FF800221146202059
:1010E00000F078F8202000F067F806B010BD00008E
:1010F00000540040303802400004024070477047FE
:101100000248816802781144816070471000002015
:1011100010B50B48016841F400710160016841F4A9
:1011200080610160016841F480710160032000F07A
:1011300085F80F2000F006F800F026F8002010BD1A
:10114000003C024070B504460D4D4FF47A7128788A
:10115000B1FBF0F00B490968B1FBF0F001F042FA85
:1011600008B1012070BD102C07D200222146501E6C
:1011700000F030F86C60002070BD012070BD0000F0
:10118000100000201C0000200A4808B5016841F446
:1011900080410160006800F4804000900548001F15
:1011A000016841F080510160006800F080500090BB
:1011B00008BD00004438024000280ADB00F01F018F
:1011C000012202FA01F14009800000F1E020C0F89C
:1011D0000011704710B4184B1B68C3F30223C3F10E
:1011E000070CBCF1040F01D94FF0040C1C1D072C97
:1011F00001D2002300E0DB1E012404FA0CFCACF158
:10120000010C0CEA0101994004FA03F35B1E1A4039
:101210001143002806DB00F1E020090180F80014EA
:1012200010BC704700F00F0000F1E020090180F8C9
:10123000141D10BC704700000CED00E000F007002A
:10124000064A11684FF6FF03194041EA002040F0BA
:10125000FD7040F080601060704700000CED00E011
:101260002DE9F04704460D46002C13D0DFF85491C9
:10127000D9F80000EFB200F00700A8420DD289F8BB
:101280000070D9F8000000F00700A84205D0012046
:10129000BDE8F0870120BDE8F08720684A4E10F0D5
:1012A000020F14D010F0040F03D0306840F4E05067
:1012B0003060207810F0080F03D0306840F46040B0
:1012C00030603068A16820F0F0000843306020787A
:1012D00010F0010F3ED060683C49012808D0022878
:1012E0000DD003280BD0096811F0020F28D00AE0B6
:1012F000096811F4003F06D10120BDE8F0870968B4
:1013000011F0007F19D0316821F0030108433060EB
:10131000FFF766FA80463068616800F00C00B0EBB9
:10132000810F17D041F2883AFFF75AFAA0EB080074
:10133000504508D90320BDE8F0870120BDE8F087BB
:101340000120BDE8F0873068616800F00C00B0EB68
:10135000810FE9D1D9F8000000F00700A8420AD9AE
:1013600089F80070D9F8000000F00700A84202D008
:101370000120BDE8F087207810F0040F05D0306818
:10138000E16820F4E05008433060207810F0080F46
:1013900006D03068216920F4604040EAC100306026
:1013A00000F042F831680A4AC1F30311515CC840A9
:1013B0000849086008480068FFF7C4FE0020BDE83F
:1013C000F0870000003C024008380240003802402C
:1013D000945000081C000020140000200148006800
:1013E000704700001C00002000B5FFF7F7FF04491C
:1013F0000968044AC1F38221515CC84000BD000065
:1014000008380240A450000800B5FFF7E7FF044980
:101410000968044AC1F34231515CC84000BD000074
:1014200008380240A450000810B51748006810F0B2
:101430000C01164816D04310042912D0082911D1E6
:10144000134C216801F03F02216811F4800F0AD08B
:101450002068C0F38810A0FB03010023FEF7BAFE4A
:1014600009E0184610BD21680023C1F38811A1FBD3
:101470000001FEF7AFFE2168C1F30141491C49009C
:10148000B0FBF1F010BD0000083802400024F40069
:10149000043802402DE9F84F0446002C12D0207881
:1014A000FB4E10F0010FA6F1040563D0301D01685A
:1014B00001F00C0104290CD0006800F00C00082891
:1014C00003D010E00120BDE8F88F306810F4800FE1
:1014D00009D0286810F4003F4CD06068002849D13A
:1014E0000120BDE8F88F6068B0F5803F14D0B0F5FA
:1014F000A02F16D0286820F480302860286820F4B7
:1015000080202860606810B3FFF76AF907462868F2
:1015100010F4003F0ED02DE0286840F480302860A1
:10152000F0E7286840F480202860286840F4803084
:101530002860E7E7FFF754F9C01B642802D90320AD
:10154000BDE8F88F286810F4003FF3D012E0FFF7F1
:1015500047F90746286810F4003F0BD0FFF740F921
:10156000C01B642802D90320BDE8F88F286810F456
:10157000003FF3D12078C74F10F0020F4FF0000961
:1015800057D0C548016811F00C0F14D0006800F066
:101590000C00082803D1306810F4800F0BD0E068ED
:1015A00080B301203860FFF71BF98046286810F0EF
:1015B000020F12D01EE0286810F0020F05D0E0687C
:1015C000012802D00120BDE8F88F2868216920F0A9
:1015D000F80040EAC10028602BE0FFF701F9A0EB1A
:1015E0000800022802D90320BDE8F88F286810F00F
:1015F000020FF2D02868216920F0F80040EAC1000B
:10160000286016E0FFE7C7F80090FFF7E9F880468A
:10161000286810F0020F0CD0FFF7E2F8A0EB0800EA
:10162000022802D90320BDE8F88F286810F0020FC5
:10163000F2D1207810F0080F35D09848DFF860A27A
:101640006169C1B101210160FFF7CAF88046DAF88B
:10165000000010F0020F26D1FFF7C2F8A0EB08003F
:10166000022802D90320BDE8F88FDAF8000010F054
:10167000020FF1D017E0C0F80090FFF7B1F88046F4
:10168000DAF8000010F0020F0DD0FFF7A9F8A0EB78
:101690000800022802D90320BDE8F88FDAF800001C
:1016A00010F0020FF1D1207810F0040F71D04FF03C
:1016B00000087C48006810F0805F0AD17948016812
:1016C00041F080510160006800F0805000904FF0C0
:1016D0000108DFF8D4B1DBF8000010F4807F1BD1E3
:1016E000DBF8000040F48070CBF80000FFF778F8DA
:1016F0008246DBF8000010F4807F0DD1FFF770F810
:10170000A0EB0A00022802D90320BDE8F88FDBF81D
:10171000000010F4807FF1D0A068DFF890B10128BC
:1017200018D005281DD0DBF8000020F00100CBF810
:101730000000DBF8000020F00400CBF80000A068F7
:1017400040B3FFF74DF88246DBF8000010F0020FBF
:1017500014D03EE0DBF8000040F00100CBF80000C0
:10176000EDE7DBF8000040F00400CBF80000DBF808
:10177000000040F00100CBF80000E0E7FFF730F890
:10178000A0EB0A0141F28830814204D90320BDE870
:10179000F88F26E005E0DBF8000010F0020FEDD036
:1017A00017E0FFF71DF88246DBF8000010F0020F8B
:1017B0000FD0FFF715F8A0EB0A0141F28830814203
:1017C00002D90320BDE8F88FDBF8000010F0020F0B
:1017D000EFD1B8F1010F04D13248016821F08051F6
:1017E0000160A069F0B32C4909684FF0FF3801F09F
:1017F0000C01082966D0022810D0C7F86090FEF7C7
:10180000EFFF0446286810F0007F2BD0FEF7E8FFBA
:10181000001B022851D90320BDE8F88FC7F860905B
:10182000FEF7DEFF8146286810F0007F0CD0FEF73F
:10183000D7FFA0EB0900022802D90320BDE8F88FEA
:10184000286810F0007FF2D1216AE069A26A08439B
:10185000616A08EB5202890141EA0241084394F8A7
:101860002C1000E055E040EA01603060012038664D
:10187000FEF7B6FF0446286810F0007F49D1FEF756
:10188000AFFF001B022813D90320BDE8F88F00002A
:10189000043802400000474208380240800E4742A8
:1018A00074380240403802400070004070380240F6
:1018B000286810F0007FE2D02BE0286810F0007F4D
:1018C000A4D126E0012822D03068E26900F480012A
:1018D00091421AD1226A00F03F01914215D147F698
:1018E000C071626A0140B1EB821F0ED1A26A00F49E
:1018F000403108EB5202B1EB024F06D194F82C10A4
:1019000000F07060B0EB016F03D00120BDE7012053
:10191000BBE70020B9E710B5FEF7DAFC10BD000008
:101920002DE9F0418AB004460D460026032084F8D4
:101930003400606C03281ED0B5F5805F08D0B5F583
:10194000006F0AD085B1A06B40F00060A06316E084
:10195000A06B40F08050A06311E0204602F0F0FF41
:10196000A16B0843A0630AE0204602F0BAFFA16B16
:101970000843A06303E0A06B40F08050A063A06B1D
:10198000194F4FF0010828B12068876384F834802C
:10199000012616E060680490A0680590E068069053
:1019A000079560690890A069099008990798099AB5
:1019B0000191029200902068069B059A049902F01A
:1019C00031FA4FF40071206802F091FA28B12168D1
:1019D0008F63A16B0843A063012684F834800AB0AA
:1019E0003046BDE8F0810000FF0540007047000070
:1019F00030B4426E920F0A70426EC2F383624A7034
:101A0000426EC2F301628A70426E120CCA70B0F864
:101A10006420120A0A7190F864204A71826E120DD5
:101A2000CA80826EC2F303420A72B0F86820C2F321
:101A3000C0324A72B0F86820C2F380328A72B0F8BD
:101A40006820C2F34032CA72B0F86820C2F3003294
:101A50000A7300254D73426C4FF400744FF0010C73
:101A6000002A0DD0012A3BD0026851499163816B55
:101A700041F08051816380F834C030BC0120704750
:101A8000B0F86820C36E9205120D42EA93720A61A3
:101A9000C26EC2F3C2620A75C26EC2F302624A75B6
:101AA000C26EC2F342528A75C26EC2F38242CA75D6
:101AB000C26EC2F3C2320A760A69521C42650B7EBC
:101AC00003F007039B1C9A4042650B7A03F00F0357
:101AD0000CFA03F383655B0A5A43C26504660EE0A1
:101AE00090F86820C36E9206920A42EA13420A6195
:101AF0000A69521C92024265C26584650466B0F8A8
:101B00006C20C2F380324A76B0F86C20C2F3C61261
:101B10008A7690F86C2002F07F02CA76026FD20FAC
:101B20000A77026FC2F341724A77026FC2F3826290
:101B30008A77026FC2F38352CA77026FC2F34052B0
:101B400081F8202081F82150026FC2F3004281F811
:101B50002220B0F87020C2F3C03281F82320B0F800
:101B60007020C2F3803281F82420B0F87020C2F3D4
:101B7000403281F82520B0F87020C2F3003281F89D
:101B80002620B0F87020C2F3812281F82720B0F817
:101B90007020C2F3012281F8282090F87000C0F371
:101BA000460081F8290081F82AC030BC0020704727
:101BB000FF054000426C0A60826C4A60C26C8A6019
:101BC000026DCA60426D0A61826D4A61C26D8A61AE
:101BD000006EC8610020704738B5044600200090B0
:101BE0006946204602F066FE10B1A16B0843A0636F
:101BF0000098C0F3432038BD2DE9F0410446256B21
:101C00002068416B11F4004F07D015F0080F04D085
:101C10002046BDE8F04102F02DBE416B4FF00008B8
:101C200011F4807F4FF0010758D03902816320689A
:101C3000C16B21F49D7121F44241C1632068C16AE6
:101C400021F00101C16215F0080F25D005F0020650
:101C500005F02000304309D0206802F06BFA28B16B
:101C6000A16B0843A0632046FFF7C0FE216840F245
:101C70003A50886384F83470C4F8308005F001006D
:101C8000304304D0204600F0B5FABDE8F08120468C
:101C900000F0B4FABDE8F08115F0800FFAD015F02D
:101CA000200F09D0206802F045FA28B1A16B084343
:101CB000A0632046FFF79AFE05F0010005F002013F
:101CC0000843E7D12068C16A21F00801C16284F8A5
:101CD0003470204600F092FABDE8F081416B11F4B7
:101CE000804F07D015F0080F04D02046BDE8F04122
:101CF00002F055BE416B40F23A221142ECD0416BEA
:101D000011F0020F03D0A16B41F00201A163416BFE
:101D100011F0080F03D0A16B41F00801A163416BE2
:101D200011F0200F03D0A16B41F02001A163416BA2
:101D300011F0100F03D0A16B41F01001A163416BB2
:101D400011F4007F03D0A16B41F00801A16340F2C0
:101D50003A7181632068C16B21F49D7121F4007197
:101D6000C163206802F0E6F9A16B0843A06315F097
:101D7000080F08D084F83470C4F830802046FFF78C
:101D800035FEBDE8F08115F0800FFAD005F01000A7
:101D900005F0200108430CD0E16B15480865E06BA5
:101DA000FEF7D5FB0028ECD0E06BBDE8F04102F077
:101DB000C9BB05F0010005F0020108430CD0216CFD
:101DC0000C480865206CFEF7C2FB0028D9D0206CB7
:101DD000BDE8F04102F094BBC4F8388084F8347058
:101DE000C4F830802046FFF796FDBDE8F081000082
:101DF000454500080145000870B50446002C04D094
:101E000094F83400002510B105E0012070BD25775D
:101E1000204600F063F8032084F83400204600F0E8
:101E20000BF808B1012070BDA5632563012084F87B
:101E30003400002070BD000070B58AB00446002553
:101E400029460495059106910791089176200990FD
:101E50000091019102900B460A46206801F0E2FFD2
:101E600010B10AB0012070BD1A4E3560206801F033
:101E7000EFFF012535600220FEF77EFB204602F0D1
:101E80009DFC38B184F83450A16B0843A0630AB0BC
:101E9000012070BD204602F018FC38B184F834509F
:101EA000A16B0843A0630AB0012070BD4FF400711C
:101EB000206802F01CF850B1226807499163A16BB9
:101EC0000843A06384F834500AB0012070BD0AB002
:101ED000002070BDA0802542FF054000F0B587B00E
:101EE000044614216846FEF7ADF92149206888426E
:101EF0003CD120480024016841F400610160006881
:101F000000F4006005901B481438016841F001019D
:101F10000160016801F001010591016841F00201D1
:101F200001600068022500F0020005904FF4507037
:101F3000CDE9000502AA03260C2782E8D0006946F5
:101F40000D48FEF741FB48F2A000CDE9000502AACA
:101F5000694682E8D0000948FEF736FB00221146A8
:101F60003120FFF737F93120FFF726F907B0F0BD30
:101F7000002C0140443802400000024000040240AE
:101F80002DE9F04F87B004460D4616469946DDF818
:101F90004080FEF725FC83465DB194F834000128AB
:101FA0000FD0A06B40F00050A06307B00120BDE847
:101FB000F08FA06B40F00060A06307B00120BDE887
:101FC000F08F0020A063E26D06EB0901914207D972
:101FD000A06B40F00070A06307B00120BDE8F08F57
:101FE000032184F834102168C862616C012900D093
:101FF00076024FF0FF3100914FEA49210191902183
:10200000029102270397002004904FF0010ACDF8B7
:1020100014A06946206801F0E2FEB9F1010F05D96C
:1020200027633146206801F0C0FF05E0C4F830A006
:102030003146206801F0D2FF68B122686C49916393
:10204000A16B0843A06384F834A00020206307B08C
:102050000120BDE8F08F019E2068416B40F22A30DC
:10206000014229D12068406B10F4004F15D0A6B171
:102070000027206801F0F0FE2870691C721E030A18
:102080000B70491C030C0B70491C921E000E08704B
:102090004D1C561E7F1C082FEBD3FEF7A1FBA0EBB7
:1020A0000B00404524D2B8F1000F21D02068416BCD
:1020B00040F22A300142D5D02068416B11F4807F74
:1020C00025D0B9F1010F22D9616C03291FD002F08C
:1020D00031F8E0B1226846499163A16B0843A063DF
:1020E00084F834A00020206307B00120BDE8F08F01
:1020F00021683F488863A06B40F00040A06384F8EB
:1021000034A00020206307B00320BDE8F08F2068D2
:10211000416B11F0080F0DD035498163A06B40F081
:102120000800A06384F834A00020206307B00120D9
:10213000BDE8F08F416B11F0020F0DD02C49816387
:10214000A06B40F00200A06384F834A0002020635C
:1021500007B00120BDE8F08F416B11F0200F26D0B1
:1021600023498163A06B40F02000A06384F834A071
:102170000020206307B00120BDE8F08F01F06CFE65
:102180002870691C721E030A0B70491C030C0B702B
:10219000491C921E000E08704D1C561EFEF720FBB7
:1021A000A0EB0B00404513D2B8F1000F10D020680F
:1021B000416B11F4001F01D0002EDFD1216840F2E5
:1021C0003A50886384F834A007B00020BDE8F08F4F
:1021D000216807488863A06B40F00040A06384F842
:1021E00034A00020206307B00120BDE8F08F00007C
:1021F000FF05400010B5FEF7B3F810BD10B5FEF7AF
:10220000C1F810BD2DE9F04F8BB004460E461546BF
:102210009946DDF85080FEF7E3FA02905EB194F83B
:10222000340001280FD0A06B40F00050A0630BB029
:102230000120BDE8F08FA06B40F00060A0630BB000
:102240000120BDE8F08F4FF0000BC4F838B0E16D0D
:1022500005EB0900884207D9A06B40F00070A0632D
:102260000BB00120BDE8F08F032084F83400206813
:10227000C0F82CB0606C012800D06D024FF0FF3028
:1022800004904FEA4920059090200690CDF81CB0AC
:10229000CDF820B04FF0010ACDF824A004A92068A1
:1022A00001F09DFDB9F1010F07D9202020632946D7
:1022B000206801F059FF039006E0102020632946B2
:1022C000206801F06AFF0390039870B121685948B3
:1022D0008863A16B03980843A06384F834A0C4F812
:1022E00030B00BB00120BDE8F08F059F2068416B36
:1022F00040F21A30014231D12068406B10F4804F17
:102300001DD0E7B1002531780191701C7A1E037849
:1023100041EA03210191401C037841EA0341019104
:10232000401C921E037841EA03610191461C571E2E
:1023300001A9206801F0A3FD6D1C082DE3D3FEF771
:102340004FFA0299401A404524D2B8F1000F21D02B
:102350002068416B40F21A300142CDD02068416BB9
:1023600011F4807F25D0B9F1010F22D9616C0329C6
:102370001FD001F0DFFEE0B122682E499163A16B0E
:102380000843A06384F834A0C4F830B00BB0012037
:10239000BDE8F08F216827488863A16B0398084344
:1023A000A06384F834A0C4F830B00BB00320BDE8BB
:1023B000F08F2068416B11F0080F0DD01D4981632B
:1023C000A06B40F00800A06384F834A0C4F830B0DB
:1023D0000BB00120BDE8F08F416B11F0020F0DD062
:1023E00014498163A06B40F00200A06384F834A01C
:1023F000C4F830B00BB00120BDE8F08F416B11F094
:10240000100F0DD00B498163A06B40F01000A0634A
:1024100084F834A0C4F830B00BB00120BDE8F08FD0
:1024200040F23A51816384F834A00BB00020BDE83B
:10243000F08F0000FF05400070B50446002C09D065
:10244000606A002540B125616561A56294F851007C
:1024500040B10CE0012070BD6068B0F5827FF4D01F
:10246000E561F2E784F85050204600F045F802207C
:1024700084F851002068016821F040010160A088C3
:10248000218900F4827001F404410843A18901F418
:1024900000610843217C01F002010843217D01F025
:1024A00001010843218B01F400710843217F01F0F1
:1024B0003801084394F8201001F080010843218D71
:1024C00001F40051084321680860A169042000EA72
:1024D000114094F8241001F010010143206841607C
:1024E0002068C16921F40061C1616565012084F83B
:1024F0005100002070BD00002DE9F04186B0044677
:1025000014216846FDF79EFE3249DFF8C4C02368F7
:102510000025304A14390224032605272E48DFF807
:10252000BC80634522D1136843F480531360126862
:1025300002F4805205920A6842F001020A600A68B9
:1025400002F0010205920A6842F002020A6009687C
:1025500001F002010591A0218DE8F2006946FEF725
:1025600033F810208DE8F10069462AE0DFF870C0EA
:10257000634529D1136843F400531360126802F4D1
:10258000005205920A6842F001020A600A6802F0ED
:10259000010205920A6842F002020A60096800948A
:1025A00001F00201CDE9047101AB694683E87000D6
:1025B000FEF70AF84FF400508DE8710006206946D6
:1025C00004904046FEF700F806B0BDE8F081000038
:1025D0000030014044380240000002400004024044
:1025E00000340140401EB0F1807F01D301207047CC
:1025F0004FF0E0214861044AF0201070002088610B
:10260000072008610020704723ED00E07047704705
:10261000F8B5044622681068D168536900F00F0CC1
:10262000BCF1000F0AD110F0200F07D011F0200FDD
:1026300004D02046BDE8F84002F0CEBA0025BCF137
:10264000000F75D003F0010C01F490765CEA0606E9
:102650006ED010F0010F06D011F4807F03D0226CF1
:1026600042F00102226410F0040F06D013F0010FB3
:1026700003D0226C42F00202226410F0020F06D056
:1026800013F0010F03D0226C42F00402226410F018
:10269000080F08D001F0200252EA0C0203D0226C8D
:1026A00042F008022264226C002A35D010F0200F7C
:1026B00005D011F0200F02D0204602F08DFA2068DC
:1026C0004069C0F38010216C11F0080F00D148B3AD
:1026D000204602F04DFA2068406910F0400F1CD0EF
:1026E0002068143050E8001F21F0400140E800123B
:1026F000002AF5D1A06B60B15C490165A06BFDF7C4
:1027000026FF002808D0A06B016D01B0BDE8F040A5
:1027100008472046FFF77BFFF8BD2046FFF777FF0D
:10272000F8BD05E0FFE72046FFF771FF2564F8BD1F
:10273000236B012B7ED110F0100F7BD011F0100F06
:102740007ED010685068009050694FF0200310F060
:10275000400F43D0A16B0868406880B20028E6D0E3
:10276000A28D8242E3D9E085C869B0F5807F2DD083
:1027700020680C3050E8001F21F4807140E80012FE
:10278000002AF5D12068143050E8001F21F0010123
:1027900040E80012002AF5D12068143050E8001FEC
:1027A00021F0400140E80012002AF5D184F83E30C3
:1027B000256320680C3050E8001F21F0100140E82C
:1027C0000012002AF5D1A06BFDF770FEA08DE18DFF
:1027D000401A81B22046FFF719FFF8BDA08DE18DA8
:1027E000401A81B2E08D0028F7D00029F5D020688A
:1027F0000C3050E8002F22F4907240E8002CBCF11D
:10280000000FF4D12068143050E8002F22F00102AC
:1028100040E8002CBCF1000FF4D184F83E30256371
:1028200020680C3050E8002F22F0100240E800230E
:10283000002B00E004E0F3D12046FFF7E7FEF8BDEF
:1028400010F0800F07D011F0800F04D02046BDE8B3
:10285000F84002F0A3BA10F0400FF0D011F0400F92
:10286000EDD02046BDE8F84002F0A9B9614B000860
:1028700070B50446002C04D094F83D00002510B13A
:1028800006E0012070BD84F83C50204600F022F89C
:10289000242084F83D002068C16821F40051C16003
:1028A000204602F0FDF92068016921F490410161A0
:1028B0002068416921F02A0141612068C16841F422
:1028C0000051C1602564202084F83D0084F83E005A
:1028D000002070BD10B586B0044614216846FDF78F
:1028E000B1FC18492068884229D1174800210268A4
:1028F00042F020020260006800F0200005901248BB
:102900001438026842F001020260006800F0010021
:1029100005904FF4C05000900220CDE90101032042
:1029200003900820049069460848FDF74DFE0022F8
:1029300011464720FEF74EFC4720FEF73DFC06B04F
:1029400010BD000000140140443802400000024065
:1029500070472DE9F84304460E4615461F4694F885
:102960003D00202802D00220BDE8F883C6B1BDB1E9
:1029700094F83C00012816D0012084F83C004FF068
:102980000009C4F84090212084F83D00FDF728FF9D
:102990008046A584E584A068B0F5805F06D007E096
:1029A0000120BDE8F8830220BDE8F883206980B1EA
:1029B0003546002684F83C90E08CB8B143460022AE
:1029C00080212046009702F018FA20B10320BDE8CC
:1029D000F8830025EEE7A5B12168287848606D1CD2
:1029E000E08C401EE084E08C0028E7D143460022C2
:1029F00040212046009702F000FA48B10320BDE8CC
:102A0000F88330882168C0F308004860B61CE7E707
:102A1000202084F83D000020BDE8F8837047FEE7E1
:102A20000148FDF7E5BE00002C0000200148FDF73D
:102A30003FBF00002C000020C16AB1F52A0F06D06C
:102A4000C16AB1F12A4F01D10821C1627047012149
:102A5000C162704708B50022806B90F83D302F4965
:102A600046F2A81C0968B1FBFCF1C1EBC10101EB06
:102A7000810100910099002934D00099491E0091EC
:102A80000168096811F4007FF4D1416B01B1CA6398
:102A9000816B01B1CA630168D1F800C02CF4806C6D
:102AA000C1F800C04285416B01B10A65816B01B17B
:102AB0000A650168D1F800C02CF0010CC1F800C013
:102AC00090F83DC02021BCF1600F10D04FF0280CD1
:102AD0003CEA030313D080F83D1080F83E20FDF758
:102AE000CFFF08BD016C41F020010164CDE780F803
:102AF0003D1080F83E200264FDF778FE08BD0168B5
:102B00000B6843F001030B6001680B6843F48063BA
:102B10000B60026380F83DC0E1E700001C0000206C
:102B200070B5044694F83D0094F83E10102901D089
:102B3000402906D1222804D121680A6822F40062C3
:102B40000A60282131EA00024FF000054FF020060C
:102B500005D02168496811F4006F04D009E02563AD
:102B600084F83D1006E0602803D084F83D6084F8C6
:102B70003E5025632068416811F4006F35D04168EC
:102B800021F400614160606B90F835203D49012AD5
:102B90000FD00165606BFDF7DAFC28B3206801688F
:102BA00021F00101016084F83D60606B016D884790
:102BB0002CE0A06B0165A06BFDF7C9FCA0B12068FB
:102BC000416911F0400F05D00069616A0870606AC0
:102BD000401C60622068016821F00101016084F8F6
:102BE0003D60A06B016D884710E094F83D106029AE
:102BF00014D0416911F0400F05D00069616A087076
:102C0000606A401C60622046FDF73AFF206C00F0CD
:102C1000010100F0020211431CD115E084F83D606F
:102C20002564416911F0400F05D00069616A0870A0
:102C3000606A401C60622068016821F00101016047
:102C40002046FDF7D3FDE1E710F0040F02D110F0AC
:102C5000080F04D02068416821F4E061416094F8D5
:102C60003D00216C11F0040F0BD0282809D1064833
:102C7000E062256384F83D6084F83E502046FDF70D
:102C8000D7FF70BD552A00080000FFFF01684A69A0
:102C900012F4806F11D06FF480624A6100210163E9
:102CA000202280F83D2080F83E10026C42F00402A1
:102CB000026480F83C10012070470020704710B576
:102CC000C26A438D0168042B0FD0438D032B1BD0A8
:102CD000438D022B30D00969426A1170416A491C48
:102CE0004162418D491E418510BD4A6822F48062CF
:102CF0004A6001680969426A1170416A491C41626F
:102D0000418D491E418510BD4B6823F480634B60A3
:102D1000042A06D0022A04D001680A6822F48062DC
:102D20000A6001680969426A1170416A491C41627E
:102D3000418D491E418510BD012A30D0102A2ED068
:102D4000042A31D0022A2FD00A6842F400720A60A5
:102D500001680969426A1170416A491C4162428DE9
:102D6000521E4285026812690A70416A491C41621A
:102D7000418D491E418501684A6822F440724A60CB
:102D8000202180F83D1090F83E200021402A10D0EC
:102D900080F83E1012210163FDF74BFF10BD0A6859
:102DA00022F480620A60D3E70A6842F480620A6013
:102DB000CEE780F83E100163FDF73DFF10BD10B572
:102DC000044694F83D00222814D1608D032812D9BE
:102DD00020680069616A0870606A401C6062608DEA
:102DE000401E6085608D032804D12068416821F46D
:102DF0008061416010BDE16A022902D0012806D03D
:102E000028B12068416821F48061416010BD2046EE
:102E100000F054FE00212022B0B12068436823F462
:102E2000E063436020680069636A1870606A401C50
:102E30006062608D401E608584F83D2084F83E10FD
:102E40002046FDF71DFE10BD2068036823F4806353
:102E500003602068436823F4E063436020680069EE
:102E6000636A1870606A401C6062608D401E6085F5
:102E700084F83D2094F83E00402807D084F83E10A6
:102E8000122020632046FDF7D4FE10BD84F83E10CA
:102E900021632046FDF7CFFE10BD10B5C16A90F842
:102EA0003D20212A0BD1428D52B1416A0268097836
:102EB0001161416A491C4162418D491E418510BD25
:102EC00020230022082914D0202912D011F5803F98
:102ED0000FD00168D1F804C02CF4E06CC1F804C034
:102EE0001121016380F83E2080F83D30FDF7A2FEFD
:102EF00010BD0168D1F804C02CF4E06CC1F804C026
:102F00000168D1F800C04CF4007CC1F800C0026335
:102F100080F83D3090F83E10402904D080F83E20E3
:102F2000FDF788FE10BD80F83E20FDF785FE10BD40
:102F300010B590F83D1090F83E30C26AB0F828C045
:102F4000BCF1000F01D1212917D0212903D0402B3A
:102F500012D1222910D1418D002941D090F83E1084
:102F6000402943D0416A026809781161416A491CCD
:102F70004162418D491E418510BD00234FF0200C58
:102F8000082A12D0202A10D012F5803F0DD00168F7
:102F90004A6822F4E0624A601121016380F83E3001
:102FA00080F83DC0FDF746FE10BD01684A6822F476
:102FB000E0624A6001680A6842F400720A600363D2
:102FC00080F83DC090F83E10402904D080F83E3093
:102FD000FDF730FE10BD80F83E30FDF72DFE10BD30
:102FE0000068416821F48061416010BDBDE8104077
:102FF00000F04EB9416C0268C9B21161416B002901
:1030000001D0C96B29B9816B002907D0C96B002990
:1030100004D00068416841F400614160704738B4F1
:1030200090F83EC0C26A046B90F83D5000230168DE
:10303000222D04D048698869009038BC7047056D1E
:1030400015B9BCF1400F05D0D0F850C0BCF1000F4D
:1030500005D009E048698869009038BC7047D0F80D
:1030600010C0BCF5404F26D0B0F82AC0BCF1000F0C
:103070002DD0B0F82AC0BCF1010F30D0B0F82AC072
:10308000BCF1020F74D0D1F800C04CF4806CC1F8D0
:1030900000C00168D1F804C01CF4006F67D012F5BD
:1030A000803F79D0012A77D0082A75D0102A73D0B2
:1030B000202A71D095E04A698A6900920A6842F430
:1030C00080720A60016D491C016538BC70474A690D
:1030D0008A6900920A6842F400720A6085E012F57B
:1030E000803F06D0082A20D0202A1ED0122C29D1B9
:1030F00019E00A6822F480620A6001684A6812F4E2
:10310000006F08D00A6822F480620A6001684A6988
:103110008969009169E04A698A6900920A6842F403
:1031200000720A6061E0012A0CD00A6822F4806211
:103130000A6001684A698A6900920A6842F400726A
:103140000A6052E0042A08D0022A06D0102A04D0CD
:103150000A6822F480620A6003E00A6842F480622E
:103160000A6001684A69896900913EE000E038E040
:10317000042A12D0022A10D0102A0ED0D1F800C092
:103180002CF4806CC1F800C00168D1F800C04CF488
:10319000006CC1F800C006E01FE0D1F800C04CF49C
:1031A000806CC1F800C00168D1F804C01CF4006F45
:1031B0000ED012F5803F07D0012A05D0082A03D08F
:1031C000102A01D0202A03D14A6842F480524A6072
:1031D00001684A698969009107E04A6842F48052AF
:1031E0004A6001684A6989690091036538BC704783
:1031F00090F83E10402912D00169B1F5804F1DD0E2
:10320000016D00293BD0016D012907D1416C006897
:1032100001F44071F12242EAD11101617047016D60
:1032200031B1416C0068C9B241F0010101617047E0
:10323000416C006801F0FE010161704790F83D109B
:1032400021290AD0416C0268C9B241F00101116123
:10325000416B41B1C96B61B905E0416C026801F095
:10326000FE011161F4E7816B0029E6D0C96B0029EA
:10327000E3D00068416841F4006141607047416CEF
:10328000006801F44071F02242EAD11101617047F7
:1032900010B590F83D10026D002A24D0026D012A6D
:1032A00035D0026D022A1DD1222938D0428D0AB1B3
:1032B00021293DD0428D002A14D1212912D1016843
:1032C0004A6822F4E0624A6001680A6842F40072C7
:1032D0000A6000210163202280F83D2080F83E1022
:1032E000FDF7AAFC10BDC16C012908D0816C0268F1
:1032F000C1F307211161016D491C016510BD816C8D
:103300000268C9B21161016D891C016510BD816C33
:103310000268C9B21161016D491C016510BD0168E7
:103320000A6842F480720A60016D491C016510BD93
:10333000416A026809781161416A491C4162418D04
:10334000491E418510BD00002DE9F84F0446DDF807
:1033500028A00B9D0F4690461E462068016841F448
:10336000806101602068016841F48071016053460A
:1033700000224FF001112046009500F09FFA4FF413
:10338000007948B12068006810F4807F01D0C4F84B
:1033900040900320BDE8F88F216807F0FE00086127
:1033A000DFF8F4B02B4652465946204600F0E0FACA
:1033B00010B10120BDE8F88F206841698069009054
:1033C0002A465146204600F099FB50B1206C042853
:1033D00004D12068016841F4007101600120BDE85A
:1033E000F88F304608F0FF0601280DD021684FEA1B
:1033F000182008612A465146204600F07FFB70B134
:10340000206C042803D007E02068066109E02068EA
:10341000016841F4007101600120BDE8F88F206867
:1034200006612A465146204600F068FB50B1206CE8
:10343000042804D12068016841F400710160012072
:10344000BDE8F88F2068016841F48071016053463F
:1034500000224FF001112046009500F02FFA48B1EC
:103460002068006810F4807F01D0C4F840900320E9
:10347000BDE8F88F2168F8B240F0010008612B46E2
:1034800052465946204600F073FA10B10120BDE8BB
:10349000F88F0020BDE8F88F020001002DE9F84305
:1034A0000446DDF82090099F0D4616469846206890
:1034B000016841F4807101604B4600224FF0011118
:1034C0002046009700F0FAF950B12068006810F427
:1034D000807F02D04FF4007020640320BDE8F883A1
:1034E000216805F0FE0008613B464A461E49204619
:1034F00000F03EFA10B10120BDE8F8832068416970
:10350000806900903A464946204600F0F7FA50B1EB
:10351000206C042804D12068016841F40071016026
:103520000120BDE8F883F5B2B8F1010F0CD0216895
:10353000300A08613A464946204600F0DFFA70B189
:10354000206C042803D007E02068056109E02068AA
:10355000016841F4007101600120BDE8F883206832
:1035600005610020BDE8F88302000100418D0029BB
:1035700009D001680969426A1170416A491C4162B7
:10358000418D491E4185704710B590F83D10428D20
:10359000002A1AD002681269436A1A70426A521CE1
:1035A0004262428D521E4285428D002A0DD12A2947
:1035B0000BD101684A6822F480624A6022210163CB
:1035C000282180F83D10FDF799FD10BD418D00299F
:1035D00009D0416A026809781161416A491C416257
:1035E000418D491E4185704710B590F83D10428DC0
:1035F000002A1AD0426A036812781A61426A521C81
:103600004262428D521E4285428D002A0DD12929E7
:103610000BD101684A6822F480624A60212101636B
:10362000282180F83D10FDF76AFD10BD38B5002354
:1036300090F83D204FF0280C3CEA020402689C46BA
:1036400005D051699169009180F83CC038BD54683B
:1036500024F48064546011F0040F00D1012311F0B0
:10366000800F07D0018B8AB280F83CC01946FDF765
:10367000BEF838BD81898AB2F6E7000070B590F8CF
:103680003D20C36A20251D4C01684FF0000C6FF4EB
:103690008066082B01D0202B01D1282A03D0212AB3
:1036A00016D04E6170BDC4624A6822F4E0624A607E
:1036B00001684E6101680A6822F480620A60C0F8FD
:1036C00030C080F83D5080F83EC0FDF7B1FA70BDC3
:1036D000C4622122026380F83D5080F83EC04A68EF
:1036E00022F4E0624A6001684E6101680A6822F4CF
:1036F00080620A60FDF703FD70BD00000000FFFF5F
:10370000F8B5044694F83D502068416821F4E06122
:1037100041600026206841690091016841F0010183
:1037200001602068016821F48061016020684168BF
:1037300011F4006F20D0484F222D48D02A2D46D0BA
:10374000616B096849686185618D19B1216C41F02F
:1037500004012164416821F400614160606BFCF761
:1037600008FF012808D0606B0765606BFCF7EFFE6F
:1037700010B1606B016D8847608D08B320684169A6
:1037800011F0040F08D00069616A0870606A401C7B
:103790006062608D401E60852068416911F0400FB5
:1037A00008D00069616A0870606A401C6062608DC0
:1037B000401E6085608D18B1206C40F004002064CC
:1037C000206C10B32046BDE8F840FFF7A9B9A16B03
:1037D000096849686185618D19B1216C41F0040166
:1037E0002164416821F400614160A06BFCF7C1FED7
:1037F0000128C1D0A06B0765A06BFCF7A8FE0028CC
:10380000BAD0A06B016D8847B6E72A2D06D1266392
:10381000282084F83D002046FDF770FC94F83D1008
:10382000202028290DD0216B222901D0222D07D15B
:10383000266384F83D0084F83E602046FDF75EFC78
:10384000F8BD0649E162266384F83D0084F83E60D5
:103850002046FDF7EDF9F8BD552A00080000FFFFEE
:1038600070B504460D4616462068406910F0040FF6
:1038700013D12046FFF70AFA08B1012070BDB5F157
:10388000FF3F05D0FCF7ACFF801BA84207D835B13D
:103890002068406910F0040FEBD0002070BD0020BC
:1038A0002063202184F83D1084F83E00216C41F013
:1038B0002001216484F83C00012070BD2DE9F0470F
:1038C0000446DDF820900D4617461E46C5F307480E
:1038D0002068B8F1010F22D0806925EA00000004B9
:1038E000000C26D00020B84216D1B6F1FF3F06D01A
:1038F000FCF776FFA0EB0900B0421CD8DEB1B8F1AE
:10390000010F28D02068806925EA00000004000C1F
:103910002CD00020B842E8D00020BDE8F0874069F4
:1039200025EA00000004000C01D00020DBE70120A4
:10393000D9E70120D7E700202063202184F83D103B
:1039400084F83E00216C41F02001216484F83C00A1
:103950000120BDE8F0872068406925EA00000004E6
:10396000000C01D00020D5E70120D3E70120D1E7EA
:103970002DE9F04704460D4616461F46C5F3074895
:103980002068B8F1010F26D0806925EA0000000404
:10399000000C3AD04FF000094FF0200A206840692F
:1039A00010F4806F1ED02068016841F4007101603E
:1039B00021686FF480604861C4F8309084F83DA0BD
:1039C00084F83E90206C40F00400206484F83C9021
:1039D0000120BDE8F087406925EA00000004000CE2
:1039E00013D0D7E7B6F1FF3F05D0FCF7F9FEC01BB7
:1039F000B0420DD866B1B8F1010F18D020688069C7
:103A000025EA00000004000CC8D10020BDE8F087C2
:103A1000C4F8309084F83DA084F83E90206C40F0CB
:103A20002000206484F83C900120BDE8F0872068E5
:103A3000406925EA00000004000CAFD1E5E72DE95C
:103A4000F04104460D4616462068406910F0400FCC
:103A500022D100274FF020082068406910F0100F95
:103A60000FD021686FF010004861276384F83D8013
:103A700084F83E70206C206484F83C700120BDE81E
:103A8000F081FCF7ADFE801BA84208D83DB120684C
:103A9000406910F0400FDFD00020BDE8F0812763BF
:103AA00084F83D8084F83E70206C40F02000206453
:103AB00084F83C700120BDE8F081000081B00E491F
:103AC00046F2A8120968B1FBF2F101EB8101009105
:103AD0000099491E0091009939B10168096811F4F3
:103AE000007FF5D1002001B07047016C41F020014A
:103AF0000164012001B070471C00002070B504462D
:103B00000D4616462068406910F0800F13D12046FC
:103B1000FFF7BCF808B1012070BDB5F1FF3F05D03B
:103B2000FCF75EFE801BA84207D835B120684069CB
:103B300010F0800FEBD0002070BD0020206320210A
:103B400084F83D1084F83E00216C41F0200121648E
:103B500084F83C00012070BD10B503490348FCF710
:103B600019FC0349087010BD22000020AC50000869
:103B7000210000202DE9F04786B014216846FCF7AB
:103B800061FB47480025016841F0040101600168BC
:103B900001F004010591016841F0800101600168B4
:103BA00001F080010591016841F0010101600168A7
:103BB00001F001010591016841F002010160006816
:103BC000384E00F002004FF40054059000222146C8
:103BD0003046FCF7FEFDDFF8D09048F20C070022DB
:103BE00039464846FCF7F5FDDFF8C0A045F202482B
:103BF000012241465046FCF7ECFD00224021504690
:103C0000FCF7E7FD00940124694630460194CDE9B4
:103C10000245FCF7D9FC02268DE87000694648464B
:103C2000FCF7D2FC01AA009782E87000694648467A
:103C3000FCF7CAFC4FF40410CDE900406946504639
:103C40000294FCF7C1FC0320CDE90240CDE90084D9
:103C500069465046FCF7B8FC0420CDE900056946EA
:103C600002945046FCF7B0FCA002CDE9000569467D
:103C700048460295FCF7A8FC4020CDE900046946BF
:103C80005046CDE90245FCF79FFC00221146062074
:103C9000FDF7A0FA0620FDF78FFA06B0BDE8F08721
:103CA0003038024000080240000002400004024098
:103CB0000D4810B50B4901600C49416000214FF4DB
:103CC00080428160C0E9031241618161C16101628A
:103CD000FCF7D8FE002803D0BDE81040FCF758BB25
:103CE00010BD0000005400402C000020A086010000
:103CF000074806490160002141608160C16001619F
:103D00004FF480414161082181617047002C0140DE
:103D1000800000200F4810B50D4901604FF48271FA
:103D2000416000218160C1604FF400720161C0E90F
:103D30000512C1610162416281620A21C162FEF71E
:103D40007BFB002803D0BDE81040FCF721BB10BD71
:103D50000030014004010020104810B50E490160F8
:103D60004FF48271416000218160C1604FF40072A4
:103D70000161C0E905120822C0E9072141628162A0
:103D80000A21C162FEF758FB002803D0BDE81040AD
:103D9000FCF7FEBA10BD0000003401405C010020B9
:103DA0000C4810B50A4901604FF4E131416000212F
:103DB00081600C22C160C0E904128161C161FEF71B
:103DC00057FD002803D0BDE81040FCF7E1BA10BD54
:103DD00000140140B4010020FEE7FEE770470A68C6
:103DE00042624A688262CB688A681A430B694969F1
:103DF00019431143C26A22F0F7021143C162002045
:103E000070470069C0B27047006800F00300704757
:103E100008444069704700000148FDF7EDBE00000E
:103E2000800000200FB4029A0199049B1143039A69
:103E30001A431143059A1143069A1143426822F02E
:103E4000FF0222F4FC4211434160002004B070479D
:103E50000321016000207047D0F8800070470A6895
:103E600082608B684A681A43CB6809691943114319
:103E7000C2686FF30B021143C160002070470968EC
:103E8000C0F880100020704710B585B0044600913E
:103E90003721019140210291002103914FF480616B
:103EA000049169462046FFF7DAFF41F28832372154
:103EB000204600F0A3F905B010BD10B585B004464A
:103EC00041F4801141F000410091292101914021EC
:103ED0000291002103914FF48061049169462046CC
:103EE000FFF7BDFF204600F05BFA05B010BD10B52E
:103EF00085B00446009110210191402102910021DA
:103F000003914FF48061049169462046FFF7A7FFB3
:103F100041F288321021204600F070F905B010BD42
:103F200010B585B00446009106210191402102910F
:103F3000002103914FF48061049169462046FFF708
:103F40008EFF41F288320621204600F057F905B075
:103F500010BD10B586B00446002101910291039175
:103F600004914FF48061059101A92046FFF777FF86
:103F7000204600F02BF906B010BD10B585B0044600
:103F80004FF4D57100910821019140210291002147
:103F900003914FF48061049169462046FFF75FFF6B
:103FA000204600F06DFA05B010BD10B585B004468E
:103FB00000911221019140210291002103914FF4BF
:103FC0008061049169462046FFF749FF41F288323B
:103FD0001221204600F012F905B010BD10B585B0D1
:103FE0000446009111210191402102910021039189
:103FF0004FF48061049169462046FFF730FF41F29B
:1040000088321121204600F0F9F805B010BD10B536
:1040100085B00446009207210191402102910021C0
:1040200003914FF48060049069462046FFF717FF24
:1040300041F288320721204600F0E0F805B010BDBB
:1040400010B585B004460021009102220192C022E1
:10405000029203914FF48061049169462046FFF774
:10406000FEFE204600F070F905B010BD10B585B019
:104070000446009109210191C02102910021039180
:104080004FF48061049169462046FFF7E8FE204620
:1040900000F05AF905B010BD10B585B004460021F6
:1040A0000091332201924022029203911101049166
:1040B00069462046FFF7D3FE41F28832332120467D
:1040C00000F09CF805B010BD10B585B00446009115
:1040D0000D21019140210291002103914FF4806153
:1040E000049169462046FFF7BAFE41F288320D215D
:1040F000204600F083F805B010BD30B585B0054608
:104100000C46002300934FF0030CCDF804C04FF091
:10411000400CCDF808C003934FF4806304936946C4
:104120002846FFF79CFE22460321284600F05CF952
:1041300005B030BD10B585B00446002100910C22B9
:104140000192402202920391110104916946204696
:10415000FFF785FE034A0C21204600F04FF805B01A
:1041600010BD000000E1F50510B585B004460091D2
:104170001921019140210291002103914FF48061A6
:10418000049169462046FFF76AFE41F28832192100
:10419000204600F033F805B010BD10B585B00446D8
:1041A00000911821019140210291002103914FF4C7
:1041B0008061049169462046FFF751FE41F2883242
:1041C0001821204600F01AF805B010BD0A494FF436
:1041D000FA520968B1FBF2F141F288325143491EAB
:1041E00002D24FF000407047426B12F0800FF6D0C1
:1041F000C5218163002070471C00002000B50346E4
:104200004F484FF4FA5C0068B0FBFCF04243521E8A
:1042100002D24FF0004000BD586B10F0450FF6D0B1
:1042200010F4006FF3D1586B10F0040F02D004208B
:10423000986300BD586B10F0010F02D00120986305
:1042400000BDC52098631846FFF7DBFD884201D00A
:10425000012000BD00211846FFF7DAFD3949084268
:1042600001D1002000BD10F0004F02D04FF00070CF
:1042700000BD10F0804F01D0402000BD10F0005F65
:1042800001D0802000BD10F0805F02D04FF480701C
:1042900000BD10F0006F02D04FF4007000BD10F0B0
:1042A000806F02D04FF4806000BD10F0807F02D09C
:1042B0004FF4006000BD10F4000F02D04FF48050A6
:1042C00000BD10F4800F02D04FF4005000BD10F478
:1042D000001F02D04FF4804000BD10F4801F02D0B8
:1042E0004FF4004000BD10F4802F02D04FF4003096
:1042F00000BD10F4003F02D04FF4802000BD10F448
:10430000803F02D04FF4002000BD10F4004F02D0D7
:104310004FF4801000BD10F4804F02D04FF4001015
:1043200000BD10F4005F02D04FF4800000BD10F01B
:10433000080F02D04FF4000000BD4FF4803000BDE4
:104340001C00002008E0FFFD14494FF4FA520968F0
:10435000B1FBF2F141F288324A43521E02D24FF0D1
:1043600000407047416B11F0450FF6D011F4006F1B
:10437000F3D1416B11F0040F03D0042181630420B9
:104380007047416B11F0010F03D0012181630120BF
:104390007047C52181630020704700001C00002089
:1043A00010494FF4FA520968B1FBF2F141F2883238
:1043B0004A43521E02D24FF000407047416B11F049
:1043C000450FF6D011F4006FF3D1416B11F0040FDB
:1043D00003D00421816304207047C521816300203C
:1043E000704700001C00002010B5034623484FF41E
:1043F000FA5C0068B0FBFCF041F2883C00FB0CFC6E
:10440000BCF1010C02D24FF0004010BD586B10F00F
:10441000450FF5D010F4006FF2D1586B10F0040F77
:1044200002D00420986310BD586B10F0010F02D029
:104430000120986310BD1846FFF7E3FC884201D0C5
:10444000012010BDC520986300211846FFF7E0FC4D
:1044500010F4604F05D010F4804F06D04FF4005098
:1044600010BD000C1080002010BD10F4004F02D0D1
:104470004FF4805010BD4FF4803010BD1C00002060
:1044800016494FF4FA520968B1FBF2F141F2883251
:104490004A43521E02D24FF000407047416B11F068
:1044A000450FF6D011F4006FF3D1416B11F0040FFA
:1044B00003D00421816304207047416B11F0010F88
:1044C00003D00121816301207047416B11F0400F3F
:1044D00001D0402181630020704700001C000020B3
:1044E00010B5064C01202070FBF7FAFE18B92078B1
:1044F00020F001002070207810BD00002000002076
:1045000010B5846B40F23A50216888632046FDF76D
:1045100063FB012184F8341000212163062801D0B7
:10452000052805D12068FFF705FEA16B0843A063AD
:10453000A06B18B12046FDF759FA10BD2046FDF7D3
:10454000EAF910BD10B5846B40F23A5021688863D7
:104550002046FDF741FB012184F83410002121633E
:10456000062801D0052805D12068FFF7E3FDA16BDF
:104570000843A063A06B18B12046FDF737FA10BDC1
:104580002046FDF7C8F910BD2DE9F04788B0044674
:104590000E46FCF725F907460025AA46CDF800A0EF
:1045A000CDF804A008212068FFF7A1FC002848D11D
:1045B000B4F8500001042068FFF766FC002840D1E1
:1045C000401E02904FF00808CDF80C803020049077
:1045D0004FF00209CDF81490CDF818A001200790F3
:1045E00002A92068FFF7FBFB2068FFF755FD0028B4
:1045F00027D12068406B10F02A0F1AD1EA462068B4
:10460000416B11F4001F05D0FFF726FC4AF8250086
:104610006D1C03E0406B10F4005F0AD0FCF7E0F87B
:10462000C01BB0F1FF3F0FD02068406B10F02A0F85
:10463000E5D02068416B11F0080F0AD0C0F838802F
:10464000082008B0BDE8F08708B04FF00040BDE892
:10465000F087416B11F0020F05D0C0F8389008B018
:104660000220BDE8F087416B11F0200F05D020211A
:10467000816308B02020BDE8F08740F23A518163A1
:1046800001980199000601F47F4140EA0120019957
:1046900001F47F0140EA1120019940EA1160306085
:1046A000301D0099009A090602F47F4241EA022176
:1046B000009A02F47F0241EA1221009A41EA126153
:1046C000016008B00020BDE8F08710B590B0044646
:1046D000012004902068FFF797FB002854D0606CFD
:1046E000032819D02068FFF7ABFC00284AD100212D
:1046F0002068FFF78DFB606704212068FFF788FBC7
:10470000A06708212068FFF783FBE0670C21206881
:10471000FFF77EFBC4F88000606C032805D004A975
:104720002068FFF7EAFC00282CD1606C03281CD01D
:10473000BDF81000206501042068FFF797FC0028F1
:1047400020D100212068FFF763FB60660421206808
:10475000FFF75EFBA06608212068FFF759FBE066C3
:104760000C212068FFF754FB206704212068FFF725
:104770004FFB000DE06405A92046FDF739F938B17B
:104780004FF0805010B010BD4FF0806010B010BDE1
:10479000B4F85000002302042068FFF738FC00281A
:1047A000F4D1A269616920690292019100900FCC55
:1047B000FFF738FB10B0002010BD00002DE9F84FC6
:1047C000044600270097002600252068FFF7C1FB5C
:1047D000002818D12068FFF7D0FB4FF0010930B155
:1047E000A7642068FFF7B5FB00280CD101E0C4F8EE
:1047F0004890A06C012808D100212068FFF744FBF5
:1048000018B14FF08050BDE8F88F4FF6FF78DFF811
:1048100060A017E000212068FFF736FB0028F2D1E6
:1048200051462068FFF749FB18B14FF08050BDE8B2
:10483000F88F00212068FFF7EBFA0646F50F009885
:10484000401C00900098404501D2002DE2D0009815
:10485000404503D34FF08070BDE8F88F16F0804FCD
:1048600002D0C4F8449000E067640020BDE8F88FEF
:10487000000010C12DE9F0410746BC6AFD6A002D19
:1048800016D000263868FFF7E7FA2070611C6A1E10
:10489000030A0B70491C030C0B70491C921E000E7E
:1048A00008704C1C551E761C082EEBD3BC62FD62B2
:1048B000BDE8F08170B504460D46002D0ED0B4F869
:1048C000500001042068FFF7FFFB002805D10021FC
:1048D0002068FFF79DFA2860002070BD4FF000604F
:1048E00070BD10B582B004460020009001900021F8
:1048F0002068FFF78DFA10F0007F03D04FF40060BE
:1049000002B010BD69462046FFF73EFE0028F7D1F1
:10491000019810F4803F0FD0B4F8500001042068D3
:10492000FFF7B2FA0028EBD100212068FFF7F8FA70
:104930000028E5D102B010BD02B04FF0806010BD7C
:1049400010B582B00446002000900190002120683C
:10495000FFF75EFA10F0007F03D04FF4006002B062
:1049600010BD69462046FFF70FFE0028F7D10198D9
:1049700010F4802F0FD0B4F8500001042068FFF726
:1049800083FA0028EBD102212068FFF7C9FA00283A
:10499000E5D102B010BD02B04FF0806010BDF8B597
:1049A00007463C6A7D6A002D1ED0002621780091C2
:1049B000601C6A1E037841EA03210091401C0378C1
:1049C00041EA03410091401C921E037841EA0361D1
:1049D0000091441C551E69463868FFF750FA761C52
:1049E000082EE3D33C627D62F8BD000070B5054639
:1049F000054C01202070FBF77FFC18B92846FFF713
:104A00006FFD2070207870BD2000002010B588B0A8
:104A100014461748007810F0010F02D008B00320A8
:104A200010BD41B1012909D002290FD0032915D0A9
:104A3000042008B010BD002008B010BD6846FBF788
:104A400049FC06982060002008B010BD6846FBF7BE
:104A500041FC07982080002008B010BD6846FBF795
:104A600039FC0798400A2060002008B010BD000003
:104A700020000020084610B511461A460124A31E46
:104A8000FBF75EFC20B9FBF72BFC0028FBD10024D0
:104A9000204610BDFFF724BD084610B511461A4642
:104AA0000124A31EFBF75EFC20B9FBF719FC0028CC
:104AB000FBD10024204610BD7047FCF721BB00004D
:104AC00030B593B030216846FBF7BCFB14210CA82D
:104AD000FBF7B8FB1C480025016841F080510160DC
:104AE000006800F0805011901848016841F440417E
:104AF00001600068022400F4404011900120009001
:104B0000000401908001CDE9064004200890642053
:104B1000CDE9090405200B906846FCF7BBFC08B101
:104B200072B6FEE70CA90F2081E831004FF48050E7
:104B3000CDE90F0503210CA8FCF792FB002801D05A
:104B400072B6FEE713B030BD40380240007000403E
:104B50000248016841F470010160704788ED00E08F
:104B600010B5806B0021C185C184FDF750FD10BDDB
:104B700001680C3151E8002F22F4907241E80023C3
:104B8000002BF5D10168143151E8002F22F0010209
:104B900041E80023002BF5D1016B012909D10168FF
:104BA0000C3151E8002F22F0100241E80023002BC5
:104BB000F5D1202180F83E1000210163704710B527
:104BC0000168CA6822F04002CA60202180F83D10C6
:104BD000FDF724FF002010BD08B590F83E102229F3
:104BE00001D0022008BD8268B2F5805F01D1016961
:104BF00029B1816AB2F5805F1DD052B10BE0816AA4
:104C000002685268C2F308020A80816A891C8162C4
:104C100009E002697AB10268526802F07F020A7004
:104C2000816A491C8162C18D491E0904090CC18534
:104C300005D0002008BD026852680A70F0E70168DC
:104C4000CA6822F02002CA600168CA6822F4807231
:104C5000CA6001684A6922F001024A61202180F895
:104C60003E10016B012903D0FDF772FE002008BD44
:104C70000021016301680C3151E8002F22F010027D
:104C800041E80023002BF5D101680A6812F0100FEB
:104C900002D00A6849680091818DFDF7B7FCE5E70D
:104CA0002DE9F041044620680169E26821F4405191
:104CB000114301612169A068E269084361691143F8
:104CC00001432068C26822F4037222F414421143A3
:104CD000C16020684169A26921F4407111434161BA
:104CE0002068A0F18041B1F588312ED0A0F180413B
:104CF000B1F58A3129D0FCF777FB8446E1690020C1
:104D00001927254D3226B1F5004F22D06068830F58
:104D10008200ACFB0701FBF75DFA0146A5FB002012
:104D200040097A42424301EB820106EB0111A5FBE7
:104D30000121490901F0F00202EB001001F00F011E
:104D4000084421688860BDE8F081FCF75DFB84467B
:104D5000D4E761684A1840EB0003ACFB0701FBF79E
:104D600039FA0346A5FB0010410918460A016FF005
:104D70001803594300EB810006EBC000A5FB0010AF
:104D8000400900F0F80102EB410100F0070008447F
:104D900021688860BDE8F0811F85EB5190F83D10D7
:104DA000212901D0022070478168B1F5805F01D1CF
:104DB000016961B1016A4A1C0262026809785160A6
:104DC000C18C491E0904090CC1840AD013E0016A90
:104DD00002680988C1F308015160016A891C0162F7
:104DE000EEE70168CA6822F08002CA600068C16804
:104DF00041F04001C160002070472DE9F0410446B8
:104E0000069D884616461F462068006838EA00005E
:104E10002AD00020B04231D1B5F1FF3F26D025B1D4
:104E2000FBF7DEFCC01BA84220D920680C3050E8FC
:104E3000001F21F4D07140E80012002AF5D120684B
:104E4000143050E8001F21F0010140E80012002A50
:104E5000F5D1202084F83D0084F83E00002084F83D
:104E60003C000320BDE8F0810120D3E72068006802
:104E700038EA000005D00020B042CDD00020BDE8C7
:104E8000F0810120F8E700000148FDF7C1BB0000F8
:104E9000B4010020FEE700000FB4054B10B503A9D4
:104EA000044A029800F017F810BC5DF814FB0000EB
:104EB000AD4F00082800002002E008C8121F08C1FA
:104EC000002AFAD170477047002001E001C1121F8B
:104ED000002AFBD170472DE9F84F99469246884643
:104EE0000546002706E025280AD051464A46904745
:104EF0006D1C7F1C28780028F5D13846BDE8F88F56
:104F0000002315F8011F18462E2915D115F8011F89
:104F100004232A290DD06FF02F022978A1F1300443
:104F2000092C09D800EB800002EB400008446D1CFE
:104F3000F3E758F8040B6D1C2A78002ADDD0632AA9
:104F400007D0732A0FD0104651464A4690477F1C1F
:104F50002AE018F8042B8DF8002000218DF80110AC
:104F60006E46012103E058F8046B4FF0FF315A07F9
:104F70004FF0000401D409E0641C84420BDA8C4237
:104F8000FADB325D002AF7D105E0641C8C42FCDBC1
:104F9000305D0028F9D1274404E016F8010B514692
:104FA0004A469047641EF8D26D1CA3E713B54FF430
:104FB0007A73012269460248FDF7CBFC00981CBDBC
:104FC000B40100201CB5FCF7A3F8FFF779FDFEF74C
:104FD000D1FDFEF7C1FEFEF76BFEFEF79BFEFEF76E
:104FE00087FEFEF7B9FDFEF7DBFE002240211248E6
:104FF000FBF7EFFB11A0FFF74FFFFBF7F1F9C8B18B
:1050000012A000BFFFF748FF4FF47A70FBF7B4FA25
:10501000052213A10020FBF721FA05226946002092
:10502000FBF7F3F9694610A0FFF736FF11A0FFF771
:1050300033FFFEE713A0E5E700040240B2E2CAD462
:10504000B3CCD0F2BFAACABC0D0A0000415432341E
:10505000435858204552524F52210D0A000000007B
:1050600068656C6C6F000000627566663A25730DAA
:105070000A000000B2E2CAD4B3CCD0F2BDE1CAF853
:105080000D0A000041543234435858204F4B210D33
:105090000A000000000000000000000001020304FC
:1050A000060708090000000001020304ED4900089A
:1050B000954A0008754A0008994A00080D4A0008F8
:1050C000E0500008000000202C000000B84E00084E
:1050D0000C5100082C000020DC410000C84E0008E4
:1050E0000000000000000000DC060F0A0F000000B6
:1050F0000100000010000000000000000024F40087
:0C510000010000000000000000000000A2
:040000050800019955
:00000001FF
